:020000040800F2
:10000000C806002091010008990100089B01000822
:100010009D0100089F010008A101000800000000E8
:10002000000000000000000000000000A301000824
:10003000A501000800000000A7010008A9010008B0
:10004000AB010008AB010008AB010008AB010008E0
:10005000AB010008AB010008AB010008AB010008D0
:10006000AB010008AB010008AB010008AB010008C0
:10007000AB010008AB010008AB010008AB010008B0
:10008000AB010008AB010008AB010008AB010008A0
:10009000AB010008AB010008AB010008AB01000890
:1000A000AB010008AB010008AB010008AB01000880
:1000B000AB010008AB010008AB010008AB01000870
:1000C000AB010008AB010008AB010008AB01000860
:1000D000AB01000899100008AB010008AB01000853
:1000E000AB010008AB010008AB01000800F002F80A
:1000F00000F03FF80AA090E8000C82448344AAF183
:100100000107DA4501D100F034F8AFF2090EBAE880
:100110000F0013F0010F18BFFB1A43F0010318473B
:10012000E41C0000041D0000103A24BF78C878C108
:10013000FAD8520724BF30C830C144BF04680C60ED
:10014000704700000023002400250026103A28BF35
:1001500078C1FBD8520728BF30C148BF0B60704739
:10016000642900F07D80002070471FB51FBD10B5C9
:1001700010BD00F076F91146FFF7F7FF01F0FCF82B
:1001800000F094F903B4FFF7F2FF03BC00F09CF910
:100190000948804709480047FEE7FEE7FEE7FEE71B
:1001A000FEE7FEE7FEE7FEE7FEE7FEE70448054957
:1001B000054A064B70470000BD0E0008ED00000820
:1001C000C8000020C8060020C8020020C802002085
:1001D0000FB41CB5074B06AA7B44694600900598EE
:1001E00000F027F90020694600F036F91CBC5DF8E4
:1001F00014FB00007D0200002DE9F0410E4604468C
:10020000002020622046E168884730B3252805D0C9
:10021000D4E901219047206A401CF2E7E1682046BA
:1002200000278847050018D0A5F14100192802D8F9
:1002300020354FF400673246294620462760FFF7F5
:100240008FFF40B1012804D0F61D26F007060836BE
:10025000D8E7361DD6E72846DAE7206ABDE8F08100
:100260002DE9F0410646002410687529314616A58F
:1002700010D0AFF30080002802DA404213A507E057
:1002800031688A0701D512A502E0490704D511A5F6
:10029000012401E0AFF3008000210A2206F12407C7
:1002A00009E0B0FBF2FCB0FBF2F302FB1C003030C3
:1002B00078541846491C0028F3D123462A46304674
:1002C000BDE8F04100F056B8000000002D0000002D
:1002D0002B0000002000000040EA010370B59B07DE
:1002E0002ED14FF00136042A2AD308C810C99D1B0D
:1002F0009D43121F15EAC61517D0D8B2E1B2401AB5
:1003000050EA056110D198B2A1B2401A50EA0541F5
:100310000AD123F07F4024F07F41401A50EA0521A2
:1003200002D1180EA0EB146070BDA342DBD018BA46
:1003300021BA884201D9012070BD4FF0FF3070BD55
:100340000AB9002070BD10F8013B11F8014B63B1F0
:10035000A3420AD1521E08D010F8013B11F8014BFC
:100360001BB1A34201D1521EEDD1181B70BD7047C5
:10037000704770472DE9F0470D469946924604466E
:1003800000F124080168880604D5E06921F0100115
:10039000216000E00120A84201DD471B00E00027AA
:1003A000A1697A1902EB0900081AA0612078C00639
:1003B00002D42046AFF30080002608E0D4E90121F2
:1003C0001AF806009047206A401C761C20624E45B1
:1003D000F4DB2078C0060AD52046AFF3008006E0A3
:1003E000D4E9012130209047206A401C2062381E49
:1003F000A7F10107F4DC07E0D4E9012118F80500B2
:100400009047206A401C2062281EA5F10105F3DCFC
:100410002046AFF300802078000602D50220BDE818
:10042000F0870120FBE7000001694A1C026108789F
:10043000704700B58FB0CDE9013100210591054924
:100440007944CDE9031011466846FFF7D5FE0FB099
:1004500000BD0000E5FFFFFF0A6802F8010B0A601B
:100460007047754600F02CF8AE46050069465346C5
:1004700020F00700854618B020B5FFF797FEBDE8CD
:1004800020404FF000064FF000074FF000084FF0FB
:10049000000B21F00701AC46ACE8C009ACE8C0098C
:1004A000ACE8C009ACE8C0098D46704710B50446F9
:1004B000AFF300802046BDE81040FFF763BE0000A8
:1004C000004870476800002001491820ABBEFEE7D5
:1004D00026000200704700002DE9F84301213B4847
:1004E00000F04CF90121394800F075F900BF384996
:1004F000364800F04FF90028F9D000224621334851
:1005000000F0FCF900BF3349304800F043F90028FF
:10051000F9D010212D4800F0FAF900BF2D49891EAD
:100520002A4800F037F90028F8D00121274800F0C8
:1005300052F900BF2649254800F02CF90028F9D0CF
:1005400001224721214800F0D9F900BF2049491C68
:100550001E4800F01FF90028F8D000BF1C493F31A9
:100560001A4800F017F90028F8D0184800F0C2F92E
:100570008DF8000000BF16493F31144800F00AF919
:100580000028F8D0114800F0B5F98DF801000121DC
:100590000E4800F02CF900210C4800F0EFF8002480
:1005A0009DF801109DF8002041EA022001F001FAB7
:1005B00007464FF03332084B01F046F8054601F08C
:1005C000CBF984B22046BDE8F88300000058004013
:1005D00001000300820007003333F33F2DE9F041AF
:1005E000024600250026002000230024002791F861
:1005F00003C00CF00F0591F803C00CF0100CBCF117
:10060000000F03D091F802C04CEA050591F800C034
:10061000BCF1000F31D0146800202BE04FF0010C2A
:100620000CFA00F3B1F800C00CEA03069E4220D198
:1006300083004FF00F0C0CFA03F7BC4305FA03FCE0
:100640004CEA040491F803C0BCF1280F06D14FF026
:10065000010C0CFA00FCC2F814C00AE091F803C0C7
:10066000BCF1480F05D14FF0010C0CFA00FCC2F8A8
:1006700010C0401C0828D1D31460B1F800C0BCF1F0
:10068000FF0F34DD546800202EE000F1080C4FF01D
:10069000010808FA0CF3B1F800C00CEA03069E4208
:1006A00021D183004FF00F0C0CFA03F7BC4305FA7D
:1006B00003FC4CEA040491F803C0BCF1280F05D1F7
:1006C00000F1080C08FA0CF8C2F8148091F803C085
:1006D000BCF1480F07D100F1080C4FF0010808FAEF
:1006E0000CF8C2F81080401C0828CED35460BDE836
:1006F000F0814FF6FF710180022181700421C170E9
:100700007047000000B585B00121880500F03AF976
:100710000121082000F046F94FF44060ADF80000D8
:1007200003208DF802001C208DF803006946104854
:10073000FFF754FF0020ADF808004BF6FF70ADF84E
:100740000A003820ADF80C004FF48060ADF80E00C0
:100750000001ADF81000074801900121064800F0A3
:100760002EF801A9044800F04FF805B000BD0000C4
:10077000000C0140A08601000058004021B1028811
:1007800042F48062028004E002884FF6FF331A4090
:100790000280704770B50246002400250023002027
:1007A000958A138B1B0445EA030626F07F4404EA6E
:1007B00001068E4201D1012000E0002070BD21B170
:1007C000028842F00102028004E002884FF6FE73C4
:1007D0001A400280704721B1028842F48072028080
:1007E00004E002884FF6FF631A400280704721B18F
:1007F000028842F40072028004E002884FF6FF5340
:100800001A400280704700002DE9F04385B004468D
:100810000D460026B1460427DFF8CC80A6884FF6A7
:10082000C0700640684600F0F3F8DDF808802F48F5
:10083000B8FBF0F01FFA80F946EA0906A680208886
:100840004FF6FE710840208000262949286888421A
:100850000CD828684000B8FBF0F087B2042F00DA0B
:1008600004273E4309F10100208427E0E8884BF685
:10087000FF71884206D1286800EB4000B8FBF0F019
:1008800087B209E0286800EBC00101EB0010B8FB5B
:10089000F0F087B247F48047C7F30B0008B947F080
:1008A000010747F4004006434FF4967009FB00F03F
:1008B0004FF47A7190FBF1F0401C2084A6832088CD
:1008C00040F00100208026884FF6F5300640A888C9
:1008D0006989084306432680A8892989084320811D
:1008E00005B0BDE8F083000000127A0040420F001E
:1008F000A08601000146088AC0B2704712B141F0DB
:10090000010102E04FF6FE73194001827047018237
:100910007047000070B5002100230F22C47804B393
:10092000154C246804F4E064C4F5E064210AC1F1C4
:100930000403CA40447804FA03F184781440214344
:1009400009010E4C0678A155047804F01F05012416
:10095000AC4005786D11AD0005F1E025C5F800410A
:1009600009E0047804F01F050124AC40044D06782A
:10097000761145F8264070BD0CED00E000E400E083
:1009800080E100E029B1064AD2690243044BDA61F2
:1009900004E0034AD2698243014BDA6170470000E8
:1009A0000010024029B1064A92690243044B9A6141
:1009B00004E0034A92698243014B9A617047000048
:1009C000001002400F48006840F001000D49086027
:1009D000084640680C4908400A49486008460068D3
:1009E0000A490840074908600846006820F480204A
:1009F00008600846406820F4FE0048604FF41F007D
:100A000088607047001002400000FFF8FFFFF6FE0C
:100A100030B500210022002400232D4D6D6805F023
:100A20000C0121B1042905D0082923D105E0294D65
:100A3000056022E0274D05601FE0254D6D6805F437
:100A40007012234D6D6805F48034022505EB924247
:100A50001CB9214D554305600BE01D4D6D6805F433
:100A600000351DB11C4D5543056002E0194D55433D
:100A7000056002E0174D056000BF00BF144D6D68B2
:100A800005F0F0010909154D6B5C0568DD40456016
:100A90000F4D6D6805F4E061090A104D6B5C456807
:100AA000DD4085600A4D6D6805F46051C90A0B4D43
:100AB0006B5C4568DD40C560054D6D6805F44041DF
:100AC000890B074D6B5CC568B5FBF3F5056130BD5F
:100AD0000010024000127A0000093D0004000020CE
:100AE0001400002010B501460022002300204A1106
:100AF000012A02D1094C236806E0022A02D1074CE0
:100B0000236A01E0054C636A01F01F02012494404E
:100B10001C400CB1012000E0002010BD001002407C
:100B20000248406800F00C007047000000100240CE
:100B300001460020034A506820F0F000084350604E
:100B400070470000001002401149096821F480310B
:100B50000F4A11601146096821F480211160B0F537
:100B6000803F03D0B0F5802F0ED106E00849096818
:100B700041F48031064A116007E00549096841F4F3
:100B8000A021034A116000E000BF00BF70470000D1
:100B90000010024001460020034A506820F4E06043
:100BA00008435060704700000010024001460020DA
:100BB000034A506820F4605040EAC100506070471A
:100BC00000100240014908667047000000004242E0
:100BD00002460020044B586820F47C1042EA0103CE
:100BE0001843014B58607047001002400146002036
:100BF000034A506820F0030008435060704700002B
:100C00000010024038B5002000900024002500BFED
:100C10003120FFF767FF05460098401C00900098C0
:100C2000B0F5A06F01D0002DF2D03120FFF75AFFB0
:100C300008B1012400E00024204638BD2DE9FC5F06
:100C400082462248007898B9BAF1640F01DA4FF071
:100C5000640ABAF5FA6F01DD4FF4FA6AAAF5FA6090
:100C60001B4948431B4990FBF1F000F5FA6B25E066
:100C700016480078012821D1BAF1320F01DA4FF07D
:100C8000320ABAF1960F01DD4FF0960AAAF19600EA
:100C900000F08FFE064600220F4B00F0A1FE044636
:100CA00000220E4B00F0D0FC804600220C4B00F0DE
:100CB00023FCCDE9000100F01FFE834640F6C4107E
:100CC00000F050FB5846BDE8FC9F000003000020E8
:100CD00018FCFFFF94F8FFFF00407FC0000059C0E0
:100CE00000409F4000B589B001210820FFF75AFE5F
:100CF00001210420FFF746FE08A8FFF7FAFC1820A0
:100D00008DF823004020ADF8200002208DF822004D
:100D100008A91848FFF762FC05A800F0B3F94820BD
:100D2000ADF8140044F62060ADF818000020ADF8CE
:100D30001A00ADF8160005A90F4800F051F901A8F6
:100D400000F044F94FF4FA60ADF80A006020ADF805
:100D500004000120ADF806000020ADF80C0001A948
:100D6000054800F0E7F80121034800F0D7F809B082
:100D700000BD0000000C01400008004010B500F06C
:100D80002DF810BD10B5FFF71DFE4FF48030FFF7B2
:100D9000DBFEFFF737FF0446012C1ED10020FFF7D2
:100DA000C7FE0020FFF702FFA002FFF7F3FE4FF49B
:100DB000E0112004FFF70CFF0120FFF703FF00BF45
:100DC0003920FFF78FFE0028FAD00220FFF70EFF30
:100DD00000BFFFF7A5FE0828FBD110BD0CB5002011
:100DE000019000903348006840F480303149086039
:100DF00000BF3048006800F4003000900198401CAB
:100E00000190009818B90198B0F5A06FF1D1294868
:100E1000006800F4003010B10120009001E00020D3
:100E200000900098012843D12348006840F010004A
:100E3000214908600846006820F003000860084661
:100E4000006840F0020008601A484068194948608C
:100E50000846406848600846406840F48060486042
:100E60000846406820F47C1048600846406840F41A
:100E7000E81048600846006840F08070086000BFD5
:100E80000C48006800F000700028F9D0094840685C
:100E900020F00300074948600846406840F002001F
:100EA000486000BF0348406800F00C000828F9D1F2
:100EB0000CBD0000001002400020024010B5134895
:100EC000006840F001001149086008464068104978
:100ED00008400E494860084600680E4908400B4922
:100EE00008600846006820F48020086008464068D2
:100EF00020F4FE0048604FF41F008860FFF73EFFBB
:100F00004FF000600449086010BD0000001002406E
:100F10000000FFF8FFFFF6FE08ED00E021B10288B7
:100F200042F00102028004E002884FF6FE731A408C
:100F30000280704770B5002400220023058C4FF614
:100F4000FE7635400584028C8388048B4FF68F75BE
:100F50002C40B51E2C400D882C43751E2A400D894F
:100F60002A434D882A43144DA8420BD0134DA84262
:100F700008D0134DA84205D0124DA84202D0124D00
:100F8000A84213D14FF6F7752A404D892A434FF6F0
:100F9000FB752A408D882A434FF6FF652B404FF69C
:100FA000FF552B408D892B43CD892B4383800483B0
:100FB000CD888586028470BD002C0140003401403C
:100FC00000400140004401400048014000210180F0
:100FD00041808180C180018141818181C1817047CF
:100FE000002202881D4B98420ED01D4B98420BD018
:100FF000B0F1804F08D01B4B984205D01A4B984255
:1010000002D01A4B984204D14FF68F731A404B8886
:101010001A43174B984207D0164B984204D04FF60C
:10102000FF431A40CB881A4302808B8883850B8844
:1010300003850A4B98420BD0094B984208D00E4BBF
:10104000984205D00D4B984202D00D4B984201D1E9
:101050000B7A03860123838270470000002C014035
:10106000003401400004004000080040000C004033
:1010700000100040001400400040014000440140C6
:10108000004801404FF6FF71818000210180C1803E
:10109000418001727047000010B51248008800F0CE
:1010A0002000E8B10F4800F039F90F4908700846F0
:1010B00000780E490E4A127888540D480078401C7A
:1010C0000B490870084800780D2806D008460078BB
:1010D0004F2805DD00F02CF902E0012005490870D9
:1010E00010BD000000380140020000201800002060
:1010F000010000200000002000B587B0012144F26B
:101100000400FFF74FFC25208DF8180000208DF813
:1011100019008DF81A0001208DF81B0006A8FFF7B2
:10112000F9FB4FF40070ADF8140018208DF817008B
:1011300003208DF8160005A91648FFF74FFA4FF463
:101140008060ADF8140004208DF8170005A911483F
:10115000FFF744FA4FF4165001900020ADF8080054
:10116000ADF80A00ADF80C00ADF810000C20ADF899
:101170000E0001A9084800F065F80121064800F0BA
:1011800023F8012240F22551034800F036F807B059
:1011900000BD0000000801400038014010B50446C1
:1011A0000BE014F8011B074800F0BDF800BF402118
:1011B000044800F015F80028F9D020780028F0D174
:1011C00010BD00000038014021B1828942F4005274
:1011D000828104E082894DF6FF731A408281704754
:1011E00002460020B1F5007F00D100BF13880B40FC
:1011F0000BB1012000E000207047F0B50346002449
:1012000000260025002040F66A17B94200D100BF31
:101210001846C1F3421401F01F06012707FA06F52C
:10122000012C01D10C3004E0022C01D1103000E07F
:1012300014301AB107682F43076002E00768AF4314
:101240000760F0BD2DE9F04786B005460E46002444
:10125000A24600BFA1460027B08900B100BF2F46BB
:101260002C8A4CF6FF700440F08804432C82AC8931
:101270004EF6F3100440B088318908437189084361
:101280000443AC81AC8A4FF6FF400440B08904436C
:10129000AC8201A8FFF7BCFB1F48874202D1DDF8F2
:1012A00010A001E0DDF80CA0A88900F4004040B1D6
:1012B0000AEBCA0000EB0A1031684900B0FBF1F8F4
:1012C00007E00AEBCA0000EB0A1031688900B0FBA6
:1012D000F1F86420B8FBF0F004012009642101FB5F
:1012E0001089A88900F4004040B1322000EBC90009
:1012F000B0FBF1F000F00700044308E0322000EBFF
:1013000009106421B0FBF1F000F00F0004432C81C0
:1013100006B0BDE8F087000000380140014688882B
:10132000C0F308007047C1F30802828070470000D4
:1013300000200A49087009E000200949074A12788C
:10134000885406480078401C044908700348007817
:101350005028F1DB0020014908707047010000208F
:10136000180000204FF4D271484300BF011EA0F1C5
:101370000100FBD1704700000EB5002400250020BD
:101380000090019002900126FFF7FCFCFFF7B4FEED
:10139000FFF7B8F9FFF7A6FC5EE0FFF79DF80546FA
:1013A0002E480078012835D100202C4908700322EE
:1013B0002BA12C48FEF790FF38B92BA0FFF7EEFECB
:1013C00000202E490870002622E004222CA1254886
:1013D000FEF782FF38B92CA0FFF7E0FE0120274975
:1013E0000870002614E007222DA11E48FEF774FFA6
:1013F00008B900260CE005222BA11A48FEF76CFF65
:1014000018B92B48FFF7CAFE02E02AA0FFF7C6FE74
:10141000FFF78EFF2846FFF711FC04462E490C808B
:10142000D6B901262A462DA16846FEF7D1FE6846A8
:10143000FFF7B4FEA4F57A70642148434FF47A7143
:1014400090FBF1F0C0F164073A4627A16846FEF729
:10145000BFFE6846FFF7A2FE9FE7000000000020E5
:101460006F6E0D00180000204A616C6F757369651E
:1014700020617265206F70656E0D0A000300002008
:101480006F66660D000000004A616C6F75736965D8
:101490002061726520636C6F7365640D0A00000043
:1014A0007374617475730D0068656C700D000000D5
:1014B000B01D000853656E64202768656C70272096
:1014C000746F2073656520616C6C20636F6D6D6156
:1014D0006E64730D0A000000340800406C756D6581
:1014E0006E732025640D0A00616E676C65202564AB
:1014F00025250D0A0000000010B591EA030F48BF32
:1015000083F0004300F17283841A71EB030C05D25F
:10151000121943EB0C03001B61EB0C01DFF824E113
:101520004FEA1154A4EB135C1EEA430F18BF9EEA66
:10153000445F73D023EA0E03DCF1200E21EA04514C
:1015400043F4801332D322FA0CFE10EB0E0023FA80
:101550000CFE41EB0E01CCF1200E03FA0EFE10EB57
:101560000E0051F10001B1F5801FCCF1200E32D2F6
:1015700001EB045112FA0EF2BDE8104058BF70475B
:10158000401C38BF5FEA420218BF7047002814BFF2
:1015900020F0010041F100014FEA410313F5001F63
:1015A00038BF7047A1F1C04100F012BB012A43EBE4
:1015B0000302ACF1200CDCF11F0E32BF4FF0000E25
:1015C00023FA0CF310EB030041EB0451B4EB115F71
:1015D000D0D0A1EB045101F5801149085FEA300039
:1015E00001EB04510ED350F1000038BF12FA0EFE89
:1015F00008D1BDE81040C9E7401C38BF5FEA42028D
:10160000CAD1C3E7BDE810404FEA410313F5001FFC
:1016100038BF7047A1F1C04100F0DABA9EEA445FDA
:1016200008D011EA5E0FBDE8104004BF01F0004190
:1016300000207047BDE8104070B500F07BFA00BF95
:1016400064FBBE3E0000E0FF2DE9C04130B4DFF88E
:10165000A0C23CEA111418BF3CEA131400F0EC805D
:1016600081EA03051CEA111444EAD57418BF1CEA88
:10167000131500F0C780A4EB05044FF0004545EAC0
:10168000C12145EAC32341EA505143EA525304F1D0
:101690007F74994204F500344FEAC0204FEAC22219
:1016A00008BF904200F09C804FEA13650FF240168D
:1016B000765D4FEA134506FB05F7C7F1807706FB19
:1016C00007F74FEAD737A7FB03687642C8F580389B
:1016D000A7FB06CE38BFA8F1010807FB08E64FF0CC
:1016E000000EA6FB028CE6FB03CEDCF1000CCEF173
:1016F000004E38BFAEF1010EA6FB0C584FF00007AC
:101700004FF00005E6FB0E87A1FB08C6A0FB07CE45
:1017100016EB0E0645F10005E1FB076515F1E04EFD
:101720007EBFA4F580345FEA46066D4116F180075E
:1017300045F100054FEA17274FEA066647EA0567B5
:10174000A6F1DE46B6F1805F4FEA15251FD938466F
:1017500024F0010C05EBC471BCF1FE6F01EB0C1120
:1017600002D8F0BCBDE8008124425CBF01F5801EB8
:101770009EEAC47F02D4F0BCBDE80081244238D484
:10178000F0BCA1F1C041BDE8004100F021BA4FEA30
:10179000D22242EA43524FEAD323A7FB02864FEA02
:1017A000D02040EA415007FB03661EEA0E0F4FEAC5
:1017B000D12105FB026658BFA6EB0056B6EB0056DA
:1017C0004FEA520E4EEAC37E18EB0E0E56EB530E46
:1017D000BDD518EB02085E417F1C55F10005B6E748
:1017E0004FF480154FF000074FF000064FF000084F
:1017F000ADE7F0BC4FF0000001F1C04101F0004145
:10180000BDE8008111EA0C1F0CEA131500D00CE0B2
:1018100013EA0C1F00F025804FF00000F0BC81EAB5
:10182000030101F00041BDE80081F0BCBDE80041CA
:1018300081EA030100F0CCB9F0BCBDE8004170B50D
:1018400000F078F9097EFC3E00F007B881EA030158
:101850004FF0000001F00041704781EA030100F001
:10186000B7B9F0BCBDE800414FF000002149704716
:10187000FFFDFBF9F7F5F4F2F0EEEDEBE9E8E6E455
:10188000E3E1E0DEDDDBDAD8D7D5D4D3D1D0CFCDDC
:10189000CCCBCAC8C7C6C5C4C2C1C0BFBEBDBCBB15
:1018A000BAB9B8B7B6B5B4B3B2B1B0AFAEADACAB10
:1018B000AAA9A8A8A7A6A5A4A3A3A2A1A09F9F9EEA
:1018C0009D9C9C9B9A99999897979695959493939C
:1018D000929191908F8F8E8E8D8C8C8B8B8A898933
:1018E00088888787868585848483838282818180B6
:1018F0000000FF070000F87F4FEA41034FEA53530F
:10190000A3F58063D3F11E03C8BFD3F1210C0CDD16
:101910004FF0004242EAC12242EA505232FA03FC3E
:101920008CEAE17CACEBE1707047102BC4BF002067
:10193000704703F5787CBCF1FF3F04D06FF00042A4
:1019400082EA2100704770B500F0F4F849922480D3
:1019500000207047F2E700004FEA1153A3F58063BF
:10196000D3F11E03A8BFD3F1200C08DB4FF00042D7
:1019700042EAC12252EA505232FA03F07047094259
:101980000BD4102BC4BF0020704703F5787CBCF14A
:10199000FF3F05D04FF0FF3070474FF00000704719
:1019A00070B500F0C7F800BF49922480002070474E
:1019B000F0E710F0004248BF4042B0FA80F310FA5E
:1019C00003F10AD0C3F11D0303F580634FEA4150D0
:1019D00002EB035202EBD12170474FF00000704739
:1019E000DFF848C170B51CEA111E1EBF1CEA1315B2
:1019F0009EEA0C0F95EA0C0F00F06F8081EA030459
:101A000023EA4C134EEAD47E21EA4C1141F48011B2
:101A100043F48013AE44A1FB024CA0FB0365AEF17E
:101A20007F7E361955EB0C05A1FB034C4CF10003EE
:101A3000A0FB021C16EB0C06654153F100030942A2
:101A400018BF46F0010613F4007F0BD14FEA0331B3
:101A50004FEA0530340341EA155140EA16506FF061
:101A600003020AE04FEAC3214FEAC520F40241EA2B
:101A7000555140EA56506FF0020202EB2E4201EB44
:101A8000025585EACE710AD05FEA440C18BF24F0F3
:101A9000004450F1000041F1000120EAD47040F20E
:101AA000FE7C624500D270BDA84214BF4FF0804456
:101AB0004FF04044002E08BF0024BEF1806FA8BF45
:101AC000A1F1C041BDE8704080F282804FF000007B
:101AD00001F1C04101F0004170479EEA0C0F0CEA91
:101AE000131518BF95EA0C0F06D04FF0000081EADD
:101AF000030E0EF0004170BD00F01CF88900013E9D
:101B000000F007B800F009B84FEA430C5FEA5C5CEC
:101B100008D081EA030100F05BB84FEA410C5FEAAC
:101B20005C5CF6D14FF00000014970470000FF07F0
:101B30000000F87F0EF1020E2EF0030E5EF8046B2B
:101B4000364205D4012A43EB030515F5001F12D8D0
:101B5000012841EB010C1CF5001F0CD80ED14FEAF7
:101B6000D17C15F5001F0CEB4C0C0CF1020C08BFDE
:101B70004CEBD37C04E04FF0080C01E04FEAD37C3F
:101B80000CEB4C0526FA05F606F00706B6F1040C38
:101B900006D20EEB860CBDE870404CF0010C60479D
:101BA000DFE80CF0090B02024FF000414FF000009B
:101BB000A1F5002170BD19461046012851EB010422
:101BC00018BFD4F5001484BF002001F0004170BD9F
:101BD0000808A0F500114FEA3101704710B591EAED
:101BE000030F48BF83F000433FF58EAC841A71EBBE
:101BF000030C07D212198CF0004C43EB0C03001BB2
:101C000061EB0C01DFF8A4E14FEA1154A4EB135C83
:101C10001EEA430F18BF9EEA445F00F0B08023EA3B
:101C20006E03524221EA0451C3EB6E0338BF5B1EC0
:101C3000DCF1200E25D322FA0CFE10EB0E0043FA45
:101C40000CFE41EB0E01CCF1200E03FA0EFE10EB60
:101C50000E0051F10001CCF1200E29D412FA0EF23F
:101C600001EB0451BDE8104058BF7047401C1CBF39
:101C7000B2F1004F704700280CBF491C20F0010052
:101C8000704712EB020E43EB030218BF4FF0010E38
:101C90004EEA4202ACF1200CDCF11E0E54D943FA9C
:101CA0000CFE10EB0E0051F1FF31CCF11E0ED5D51C
:101CB0000EF1010E12FA0EFE404141EB010101EB63
:101CC000445C5FEA5C5C10D910EBDE7001EB045100
:101CD00038BFBEF1004FBDE8104018BF7047002864
:101CE0000CBF491C20F00100704730D24FEAD42CC1
:101CF00011F5001124F400641BD0B1FA81F20B3A03
:101D0000A41AA41ED2F12003914030FA03F3194320
:101D1000904001EBCC71002C01EB0451BDE8104068
:101D2000A8BF704701F1C0414FF0000001F0004131
:101D30007047B0FA80F310FA03F100D110BDE41A35
:101D4000173C4805C90AE4E701EB045110BD4910EE
:101D500001EB0451BDE810404FEA300002E04FF0C3
:101D6000000170474A0008BF0042F8D0B2F5001FDA
:101D700028BF704701F000414FF0000070479EEA15
:101D8000445F07D011EA5E0FBDE8104004BF002198
:101D900000207047BDE8104070B5FFF7CBFE00BFD4
:101DA00040DFF63E83F00041104670470000E0FF40
:101DB0006F6E202D206F70656E20746865206A61DB
:101DC0006C6F757369650D0A6F6666202D20636CF4
:101DD0006F736520746865206A616C6F75736965DF
:101DE0000D0A737461747573202D207468652073F7
:101DF0007461747573206F66206A616C6F757369A6
:101E0000650D0A00241E00080000002018000000D4
:101E1000280100083C1E000818000020B006000041
:101E2000440100080000000100000000010203045A
:0C1E30000102030406070809020406086A
:04000005080001915D
:00000001FF
